:020000040800F2
:100000008806002029020008310200083302000897
:10001000350200083702000839020008000000001D
:100020000000000000000000000000003B0200088B
:100030003D020008000000003F02000865080008BB
:10004000430200084302000843020008430200087C
:10005000430200084302000843020008430200086C
:10006000430200084302000843020008430200085C
:10007000430200084302000843020008430200084C
:10008000430200084302000843020008430200083C
:10009000430200084302000843020008430200082C
:1000A000430200084302000843020008430200081C
:1000B000430200084302000843020008430200080C
:1000C00043020008430200084302000843020008FC
:1000D00043020008430200084302000843020008EC
:1000E00043020008430200084302000843020008DC
:1000F00043020008430200084302000843020008CC
:1001000043020008430200084302000843020008BB
:1001100043020008430200084302000843020008AB
:10012000430200084302000843020008430200089B
:10013000430200084302000843020008430200088B
:10014000430200084302000843020008430200087B
:10015000430200084302000843020008430200086B
:10016000430200084302000843020008430200085B
:10017000430200084302000843020008430200084B
:10018000430200084302000800F002F800F03CF8C7
:100190000AA090E8000C82448344AAF10107DA45E2
:1001A00001D100F031F8AFF2090EBAE80F0013F0F8
:1001B000010F18BFFB1A43F0010318476018000035
:1001C00080180000103A24BF78C878C1FAD85207C6
:1001D00024BF30C830C144BF04680C6070470000C1
:1001E0000023002400250026103A28BF78C1FBD840
:1001F000520728BF30C148BF0B6070471FB501F0E0
:1002000008FC1FBD10B510BD01F0CCFB1146FFF777
:10021000F5FF00F068F901F0EAFB03B4FFF7F2FF25
:1002200003BC01F0EFFB0000094880470948004784
:10023000FEE7FEE7FEE7FEE7FEE7FEE7FEE7FEE796
:10024000FEE7FEE704480549054A064B70470000F3
:100250004303000889010008880000208806002068
:1002600088020020880200200CB500200190009038
:100270007548006840F480307349086000BF7248D8
:10028000006800F4003000900198401C0190009834
:1002900018B90198B0F5A06FF1D16B48006810F45F
:1002A000003F02D00120009001E000200090009863
:1002B000012845D164484030006840F080506249D0
:1002C000403108606148006840F480405F49086040
:1002D0005D48083000685C490831086008460068DD
:1002E00040F4004008600846006840F4A0500860F0
:1002F0005748091F0860081F006840F08070091FF8
:10030000086000BF5048006810F0007FFAD040F24B
:100310000560504908604C480830006820F0030030
:100320004949083108600846006840F0020008604A
:1003300000BF45480830006800F00C000828F8D1DC
:100340000CBD10B54448006840F470004249086094
:100350003D48006840F001003B49086000203A49F0
:1003600008310860384800683C4908403649086050
:100370003B48091D0860081F006820F48020091F01
:100380000860002030490C310860FFF76DFF4FF026
:10039000006031498039086010BD70B5002000222E
:1003A000022300240221284D08352D6805F00C0099
:1003B00020B1042806D0082834D107E0294D2A4E60
:1003C000356033E0294D284E35602FE01E4D2D1D40
:1003D0002D68C5F380541C4D2D1D2D6805F03F017F
:1003E00054B1224DB5FBF1F5174E361D3668C6F3F4
:1003F000881605FB06F209E01A4DB5FBF1F5124E21
:10040000361D3668C6F3881605FB06F20E4D2D1D07
:100410002D68C5F301456D1C6B00B2FBF3F5124E60
:10042000356003E00F4D104E356000BF00BF064D34
:1004300008352D68C5F303150D4E705D0A4D2D6806
:10044000C540094E356070BD003802400070004064
:1004500019544007003C024088ED00E0FFFFF6FE23
:10046000103000240024F4000000002000127A0064
:100470000400002048B1772101807321418061216F
:1004800081806421C18030210181704790B13F4952
:1004900041603F490160C9140181491041814FF415
:1004A0001641C160002202830C22C2820022828295
:1004B00042820282704748B102210172FF214181CC
:1004C00033490160102181802021C180704748B1EB
:1004D00002210172FF2141812D490160402181806B
:1004E0008021C180704790B000243421684601F01B
:1004F0002FFA00200D900E900F9000F0C2F903A883
:10050000FFF7E5FF6846FFF7D6FF06A8FFF7BEFF37
:10051000684600F03FFB0DA8FFF7ACFF00BF07984F
:1005200000F071F80446BDF83400A04204D1002167
:10053000684600F080FBF2E7BDF83600A04204D127
:100540000121684600F077FBE9E7BDF83800A042DA
:1005500004D10221684600F06EFBE0E7BDF83A00E6
:10056000A04204D10321684600F065FBD7E7BDF83F
:100570003C00A042D3D10421684600F05CFBCEE7EA
:1005800010B1002141700170704700000048004028
:10059000000402402DE9F04107460D4614460026AE
:1005A00097B18DB184B1384601F091F9208021884E
:1005B000284601F0ABF904E0B85D25F81600701C80
:1005C00086B22088B042F7DCBDE8F0810146002009
:1005D00011B10A88C2F3801070470146002011B1A2
:1005E0000A88C2F34010704770B504460D464CB1FE
:1005F0002946204601F05FF800BF2046FFF7E6FFDE
:100600000128FAD170BD70B5044600254CB100BF79
:100610002046FFF7E2FF0128FAD1204601F04FF80B
:100620000546284670BD2DE9F04106460C461746A2
:10063000002556B14CB106E034F815103046FFF7EE
:10064000D3FF681C85B2BD42F6DBBDE8F0812DE921
:10065000F04107460C46154600267FB174B16DB1D6
:100660002946204601F052F906E03846FFF7CBFF55
:1006700024F81600701C86B2AE42F6DBBDE8F081AD
:1006800037B5B2B005460C4695B18CB1BDF8D00077
:1006900000280DDD6420349034AA69462046FFF717
:1006A00079FFBDF8D02069462846FFF7BCFF00BFA0
:1006B00035B030BD2DE9F0410446002C62D02568EC
:1006C000208900F0C7F90746608900F0C3F90646A3
:1006D0005E49606888420AD107223946284600F000
:1006E000F0FB07223146284600F0EBFB49E0584971
:1006F000606888420AD107223946284600F0E1FBAB
:1007000007223146284600F0DCFB3AE05149606898
:1007100088420AD107223946284600F0D2FB072238
:100720003146284600F0CDFB2BE04B4960688842FB
:100730000AD108223946284600F0C3FB0822314678
:10074000284600F0BEFB1CE04449606888420AD19C
:1007500008223946284600F0B4FB082231462846D4
:1007600000F0AFFB0DE03E496068884209D10822E5
:100770003946284600F0A5FB08223146284600F0FD
:10078000A0FB00BFBDE8F08110B5044614B32F49AB
:100790006068884204D10121102000F091FD2BE017
:1007A0002B496068884204D10121480400F077FD9C
:1007B00022E028496068884204D10121880400F0C1
:1007C0006EFD19E024496068884204D10121C80403
:1007D00000F065FD10E021496068884204D10121E4
:1007E000080500F05CFD07E01D496068884203D100
:1007F0000121202000F064FD10BD1CB504462046F8
:10080000FFF7C2FF206800F0DBF82046FFF752FF39
:1008100002208DF8040000208DF8060020896189EF
:100820000843009001208DF8070002208DF8050094
:100830006946206800F0BAFA04F10C01606800F023
:1008400087FE0121606800F00BFF1CBD0010014015
:100850000044004000480040004C00400050004070
:10086000001401401C480068401C1B490860704788
:10087000194A116800BF184A1268521A8242FAD9FE
:1008800070477FB5684600F042FC64220198B0FBD7
:10089000F2F1B1F1807F00D31DE021F07F40401ED6
:1008A0004FF0E022506150170F22002807DA13079B
:1008B0001D0E0A4B00F00F04241F1D5503E0130703
:1008C0001C0E074B1C5400BF00204FF0E02290612B
:1008D0000720106100BF7FBD1400002018ED00E06C
:1008E00000E400E010B504464CB1A1880022206865
:1008F00000F0DCFAE1880022206800F0D7FA10BD91
:100900001CB50446ECB1684600F098FA206800F087
:1009100057F801208DF8040000208DF80600A0880B
:10092000E1880843009001208DF8070002208DF82F
:1009300005006946206800F039FA2046FFF7D2FF2B
:1009400000BF1CBD10B504464CB1A1880022206830
:1009500000F0ACFAE1880122206800F0A7FA10BD8F
:1009600010B504464CB1A1880122206800F09EFA1F
:10097000E1880022206800F099FA10BD10B5044605
:10098000A4B1207A20B1012806D002280CD107E0BA
:100990002046FFF7A7FF08E02046FFF7E1FF04E04D
:1009A0002046FFF7CFFF00E000BF00BF10BD0146AB
:1009B000002001B1087A704700B101727047000051
:1009C00010B504466A48844204D10121084600F06B
:1009D00033FC3EE06748844204D10121022000F04C
:1009E0002BFC36E06448844204D10121042000F04D
:1009F00023FC2EE06148844204D10121082000F04C
:100A00001BFC26E05E48844204D10121102000F046
:100A100013FC1EE05B48844204D10121202000F039
:100A20000BFC16E05848844204D10121402000F01C
:100A300003FC0EE05548844204D10121802000F0DF
:100A4000FBFB06E05248844203D10121801500F0EF
:100A5000F3FB10BD01460020B1F5807F3BD012DCD6
:100A6000102930D008DC012925D0022925D00429FD
:100A700025D008293FD124E0202926D0402926D09E
:100A8000802938D125E0B1F5805F2CD009DCB1F5A3
:100A9000007F22D0B1F5806F21D0B1F5006F2AD14F
:100AA0001FE0B1F5005F20D0B1F5804F1FD0B1F548
:100AB000004F20D11DE000201EE001201CE002209C
:100AC0001AE0032018E0042016E0052014E00620B8
:100AD00012E0072010E008200EE009200CE00A20B8
:100AE0000AE00B2008E00C2006E00D2004E00E20B8
:100AF00002E00F2000E000BF00BF70470146012068
:100B0000102931D2DFE801F0080A0C0E1012141679
:100B1000181B1E2124272A2D012026E0022024E074
:100B2000042022E0082020E010201EE020201CE00D
:100B300040201AE0802018E04FF4807015E04FF458
:100B4000007012E04FF480600FE04FF400600CE0A2
:100B50004FF4805009E04FF4005006E04FF480401D
:100B600003E04FF4004000E000BF00BF704700000A
:100B7000000002400004024000080240000C024055
:100B8000001002400014024000180240001C024005
:100B90000020024010B5044654B12046FFF7B0FED5
:100BA00004F10C00FFF7ACFE04F11800FFF725FE7E
:100BB00010BD70B504460D46002C3BD0062D37D233
:100BC000DFE805F00D17212B033500212046FFF744
:100BD000F3FE002104F10C00FFF7EEFE29E00221F4
:100BE0002046FFF7E9FE022104F10C00FFF7E4FEC6
:100BF0001FE001212046FFF7DFFE012104F10C0078
:100C0000FFF7DAFE15E000212046FFF7D5FE0221AE
:100C100004F10C00FFF7D0FE0BE002212046FFF7A5
:100C2000CBFE002104F10C00FFF7C6FE01E000E05E
:100C300000BF00BF70BD70B504460D4654B12946D3
:100C40002046FFF7B6FF2046FFF798FE04F10C00A0
:100C5000FFF794FE70BD2DE9F04104460427002CF7
:100C600032D02046FFF7A3FE054604F10C00FFF743
:100C70009EFE0646022D0BD12EB1012E05D0022E6E
:100C800005D1002703E0032701E0042700BF1AE095
:100C9000012D0BD12EB1012E05D0022E05D1042736
:100CA00003E0052701E0012700BF0CE05DB92EB18C
:100CB000012E05D0022E05D1022703E0042701E012
:100CC000052700BF00BF00BF3846BDE8F081000027
:100CD00010B504468C48844208D10121084600F032
:100CE00000FB0021012000F0FCFA5EE0874884420E
:100CF00008D10121022000F0F4FA0021022000F0C6
:100D0000F0FA52E08248844208D10121042000F028
:100D1000E8FA0021042000F0E4FA46E07D4884422D
:100D200008D10121082000F0DCFA0021082000F0A1
:100D3000D8FA3AE07848844208D10121102000F026
:100D4000D0FA0021102000F0CCFA2EE07348844243
:100D500008D10121202000F0C4FA0021202000F059
:100D6000C0FA22E06E48844208D10121402000F000
:100D7000B8FA0021402000F0B4FA16E06948844235
:100D800008D10121802000F0ACFA0021802000F081
:100D9000A8FA0AE06448844207D10121801500F0D6
:100DA000A0FA0021A01500F09CFA10BDF0B50A468B
:100DB00000210023002400BF3DE0012505FA01F3D6
:100DC000156805EA03049C4234D105684F000326E8
:100DD000BE40B543056015794E00B5400668354301
:100DE00005601579012D02D01579022D16D185687F
:100DF0004F000326BE40B543856055794E00B5408F
:100E0000866835438560456801268E40B543456058
:100E1000456896798E40B6B235434560C5684F0047
:100E20000326BE40B543C560D5794E00B540C668BF
:100E30003543C560491C1029BFD3F0BD4FF6FF7183
:100E400001600021017141718171C171704708B564
:100E50004FF480320092009A0A430092009AC261D5
:100E6000C161009AC261C2690092C269009208BD64
:100E70000246002013690B4201D0012000E000204F
:100E800070470146086980B27047024600205369E6
:100E90000B4201D0012000E0002070470146486964
:100EA00080B2704701837047418370470AB1018364
:100EB00000E0418370474161704742694A404261A6
:100EC0007047F0B5002300244D07ED0E02FA05F33C
:100ED000CE1000F1200555F826504E07F70E0F26CC
:100EE000BE40B543CF1000F1200646F82750CE1083
:100EF00000F1200555F8265045EA0304CE1000F114
:100F0000200545F82640F0BD0000024000040240E4
:100F100000080240000C0240001002400014024091
:100F200000180240001C024000200240FA480068FD
:100F300040F00100F84908600020F74908310860D6
:100F4000F5480068F5490840F3490860F448091D70
:100F50000860081F006820F48020091F0860002036
:100F6000ED490C31086070470021EB4A921C11706A
:100F700011460870704710B501460022002300207A
:100F80004A11012A02D1E44C236808E0022A03D165
:100F9000E14C7034236802E0DF4C7434236801F0C4
:100FA0001F02012494401C4201D0012000E00020D7
:100FB00010BD38B5002000900024002500BF31206E
:100FC000FFF7D9FF05460098401C00900098B0F547
:100FD000A06F01D0002DF2D03120FFF7CCFF08B177
:100FE000012400E00024204638BD01460020CA4A02
:100FF000106820F0F80040EAC10010607047C9494D
:10100000086070470021C44A7032117011700128C5
:1010100002D004280AD104E00121BF4A70321170C5
:1010200005E00521BC4A7032117000E000BF00BF2E
:101030007047BD490860704770B5049C41EA82154D
:101040000126C6EB530645EA0645054345EA046515
:10105000B14E361D356070BDB249086670478201D9
:1010600042EA0172AC4B84331A607047AD4988661E
:101070007047AC49C864704702460020A64B08334D
:10108000186820F0EC6042EA01031843A24B0833D1
:1010900018607047024600209F4B0833186820F004
:1010A000784042EA010318439B4B083318607047AD
:1010B00001460020984A0832106820F003000843D7
:1010C0001060704794480830006800F00C007047CA
:1010D00001460020904A0832106820F0F0000843D2
:1010E00010607047014600208B4A0832106820F4D7
:1010F000E05008431060704701460020864A0832DD
:10110000106820F4604040EAC10010607047F0B5FC
:101110000021002200240225002602237E4F0837EA
:101120003F6807F00C0121B1042905D0082937D107
:1011300005E07E4F076036E07D4F076033E0764F75
:101140003F1D3F68C7F38056734F3F1D3F6807F050
:101150003F036EB1764FB7FBF3F7DFF8BCC10CF17C
:10116000040CDCF800C0CCF3881C07FB0CF40CE08A
:101170006E4FB7FBF3F7DFF8A0C10CF1040CDCF8FD
:1011800000C0CCF3881C07FB0CF4634F3F1D3F6885
:10119000C7F301477F1C7D00B4FBF5F7076002E051
:1011A000624F076000BF00BF5B4F08373F6807F022
:1011B000F00109095F4F7A5C0768D7404760564FD6
:1011C00008373F6807F4E051890A5A4F7A5C47684C
:1011D000D7408760504F08373F6807F46041490B9C
:1011E000544F7A5C4768D740C760F0BD002100F4D7
:1011F0004072B2F5407F0AD1474A0832116821F4A3
:10120000F8114D4A02401143434A08321160424AE4
:1012100070321268C0F30B031A433F4B70331A60ED
:10122000704741494439086070473F494039086078
:10123000704742490860704739B1374A3032126806
:101240000243354B30331A6006E0334A30321268BD
:101250008243314B30331A60704739B12E4A3432F1
:10126000126802432C4B34331A6006E02A4A3432A7
:1012700012688243284B34331A60704739B1264ACA
:10128000383212680243244B38331A6006E0224A8F
:10129000383212688243204B38331A60704739B1B4
:1012A0001D4A4032126802431B4B40331A6006E06D
:1012B000194A403212688243174B40331A60704714
:1012C00039B1154A443212680243134B44331A6051
:1012D00006E0114A4432126882430F4B44331A60CD
:1012E000704739B10C4A1032126802430A4B10336E
:1012F0001A6006E0084A103212688243064B103327
:101300001A607047E1B1044A143212680243024B7A
:1013100014331A6019E0000000380240FFFFF6FEA7
:101320001030002400004742800E47420024F400A1
:1013300000127A0018000020FFFCFF0F5C014742FA
:101340005B4A126882435A4B1A60704739B1584A57
:10135000121D12680243564B1B1D1A6006E0544AC8
:10136000121D12688243524B1B1D1A60704739B11F
:101370004F4A0C32126802434D4B0C331A6006E0A0
:101380004B4A0C3212688243494B0C331A60704747
:1013900039B1474A103212680243454B10331A6084
:1013A00006E0434A103212688243414B10331A6000
:1013B000704739B13E4A3C32126802433C4B3C33E1
:1013C0001A6006E03A4A3C3212688243384B3C339A
:1013D0001A60704739B1364A403212680243344BC2
:1013E00040331A6006E0324A403212688243304B82
:1013F00040331A60704739B12D4A443212680243B3
:101400002B4B44331A6006E0294A44321268824367
:10141000274B44331A60704739B1254A4C32126861
:101420000243234B4C331A6006E0214A4C321268C7
:1014300082431F4B4C331A60704739B11C4A5032FB
:10144000126802431A4B50331A6006E0184A5032B1
:1014500012688243164B50331A60704739B1144AF0
:10146000D21F12780243124BDB1F1A7006E0104A9B
:10147000D21F127882430E4BDB1F1A7070470C4844
:101480006030006840F08070094960310860704742
:1014900001460020064A083A12680A4201D001209B
:1014A00000E0002070470249891F08707047000063
:1014B0001438024010B50446F748844208D101218F
:1014C0001020FFF765FF00211020FFF761FF3EE0CD
:1014D000F248844209D101214804FFF748FF002166
:1014E0004FF40030FFF743FF31E0ED48844209D16B
:1014F00001218804FFF73BFF00214FF48020FFF714
:1015000036FF24E0E748844209D10121C804FFF7EF
:101510002EFF00214FF40020FFF729FF17E0E248DB
:10152000844209D101210805FFF721FF00214FF472
:101530008010FFF71CFF0AE0DC48844207D101213C
:101540002020FFF725FF00212020FFF721FF10BDFD
:101550002DE9FF4705460E460024A14600BFA046E0
:10156000B08900B100BF2C8A24F44054F0880443B1
:101570002C82AC8941F20C608443B08831890843E5
:10158000718908430443AC81AC8A24F44074B08967
:101590000443AC826846FFF7BAFDBF48854202D0DB
:1015A000C248854202D1DDF80C9001E0DDF80890D8
:1015B000A88910F4004F08D009EBC90000EB09100E
:1015C00031684900B0FBF1F707E009EBC90000EB17
:1015D000091031688900B0FBF1F76420B7FBF0F027
:1015E00004012009642101FB1078A88910F4004F40
:1015F00008D0322000EBC800B0FBF1F000F007008B
:10160000044308E0322000EB08106421B0FBF1F045
:1016100000F00F0004432C81BDE8FF874FF4165102
:10162000016000218180C18001810C214181002164
:101630008181704710B502460020108A20F4706046
:101640000B884C8823438C882343CC88234318433E
:10165000108210BD0021018041808180C1807047CF
:1016600021B1828942F40052828104E082894DF6E0
:10167000FF731A4082817047028B02F47F4202831B
:10168000028B0A430283704721B1828942F40042EF
:10169000828103E08289C2F30E028281704721B108
:1016A000828A42F40062828204E0828A4FF2FF73EF
:1016B0001A4082827047C1F3080282807047014657
:1016C0008888C0F308007047028A4FF6F0731A400A
:1016D0000282028A0A430282704721B1828942F063
:1016E0000202828104E082894FF6FD731A408281F2
:1016F000704782894FF2FF731A40828182890A43C0
:1017000082817047028A4FF6DF731A400282028A92
:101710000A430282704721B1028A42F48042028267
:1017200004E0028A4BF6FF731A40028270478189F7
:1017300041F001018181704721B1828A42F00802A3
:10174000828204E0828A4FF6F7731A4082827047E1
:10175000028BD2B20283028B42EA012202837047DB
:1017600021B1828A42F02002828204E0828A4FF60E
:10177000DF731A408282704721B1828A42F01002E0
:10178000828204E0828A4FF6EF731A4082827047A9
:10179000828A4FF6FB731A408282828A0A438282CF
:1017A000704721B1828A42F00202828204E0828A7A
:1017B0004FF6FD731A40828270471AB1838A0B4339
:1017C000838202E0838A8B4383827047F0B50346AD
:1017D0000024002600250020A1F510676A3F00D1F3
:1017E00000BF1846C1F3421401F01F06012707FA93
:1017F00006F5012C01D10C3004E0022C01D110308F
:1018000000E014301AB107682F43076002E0076850
:10181000AF430760F0BD02460020B1F5007F00D164
:1018200000BF13880B4201D0012000E00020704768
:1018300001F40072B2F5007F00D100BFCA430280FC
:10184000704770B502460024002300250020A1F552
:1018500010666A3E00D100BFC1F3421501F01F03BC
:10186000012606FA03F3012D02D19689334006E0E2
:10187000022D02D1168A334001E0968A33400C12C1
:10188000012606FA04F41688344013B10CB1012085
:1018900000E0002070BD0000001001400044004046
:1018A00000480040004C004000500040001401403F
:1018B00010B500220023A1F510646A3C00D100BFDE
:1018C0000A1201249440A3B2DC43048010BD10B579
:1018D000431C02E010F8011B71B18107FAD14FF0EF
:1018E000013202C88C1A8C4314EAC211F9D0C01A12
:1018F0000A0603D0C01E10BDC01A10BD0A0401D0D4
:10190000801E10BD0902FCD0401E10BD4FF0000229
:101910000429C0F0128010F0030C00F01B80CCF101
:10192000040CBCF1020F18BF00F8012BA8BF20F86F
:10193000022BA1EB0C0100F00DB85FEAC17C24BFC3
:1019400000F8012B00F8012B48BF00F8012B70476D
:101950004FF0000200B5134694469646203922BF48
:10196000A0E80C50A0E80C50B1F12001BFF4F7AF93
:10197000090728BFA0E80C5048BF0CC05DF804EB75
:10198000890028BF40F8042B08BF704748BF20F8E3
:10199000022B11F0804F18BF00F8012B70477047E1
:1019A00070477047754600F029F8AE460500694655
:1019B000534620F00700854618B020B5FEF742FCDC
:1019C000BDE820404FF000064FF000074FF0000840
:1019D0004FF0000B21F00701AC46ACE8C009ACE8C1
:1019E000C009ACE8C009ACE8C0098D4670470446A0
:1019F000AFF300802046FEF710FC0000004870475F
:101A00002800002001491820ABBEFEE72600020096
:101A100070474FF04070E1EE100A70473C1A000822
:101A20000000002028000000C4010008641A00081B
:101A30002800002060060000E0010008007A030A88
:101A4000000000000000000001020304060708096E
:101A50000000000000000000010203040102030472
:041A60000607080964
:0400000508000229C4
:00000001FF
